:020000040800F2
:10000000DC0800204DBC000889180008951800087D
:100010009D180008A5180008AD1800080000000091
:10002000000000000000000000000000B5180008FB
:10003000C118000800000000CD180008D9180008F9
:10004000ADBC0008ADBC0008ADBC0008ADBC0008EC
:10005000ADBC0008ADBC0008F5180008E5180008A4
:10006000ADBC0008ADBC0008ADBC0008ADBC0008CC
:10007000ADBC0008ADBC0008ADBC0008ADBC0008BC
:100080001D060008ADBC0008ADBC0008ADBC0008F2
:10009000ADBC0008ADBC0008ADBC0008ADBC00089C
:1000A000ADBC0008ADBC0008ADBC0008ADBC00088C
:1000B00005190008ADBC0008ADBC0008ADBC0008C7
:1000C000ADBC0008ADBC0008ADBC0008ADBC00086C
:1000D000ADBC0008ADBC0008ADBC0008ADBC00085C
:1000E000ADBC0008AD140008ADBC0008ADBC0008F4
:1000F000ADBC0008ADBC0008ADBC0008ADBC00083C
:10010000ADBC0008ADBC0008FD120008ADBC000885
:10011000ADBC0008ADBC0008ADBC0008ADBC00081B
:10012000ADBC0008ADBC0008ADBC0008ADBC00080B
:10013000ADBC0008ADBC0008ADBC0008ADBC0008FB
:10014000ADBC0008ADBC0008ADBC0008111900082A
:10015000ADBC0008ADBC0008ADBC0008ADBC0008DB
:10016000ADBC0008ADBC0008ADBC0008ADBC0008CB
:10017000ADBC0008ADBC0008ADBC0008ADBC0008BB
:08018000ADBC0008ADBC000895
:10018800605D010800000020E0000020605D0108BB
:100198000000001000000010E00800209C810120F1
:0801A80000000010000000102F
:1001B00080B594B000AFF860B9607A603B608C4B5A
:1001C00000221A608B4B00221A608B4B00221A60AF
:1001D0008A4B00221A608A4B00221A60894B002247
:1001E0001A7001214FF4001011F062F901214FF44F
:1001F000004011F099F901214FF0005011F094F9ED
:100200000121102011F090F907F12803184611F090
:10021000BFFD5A23FB6214233B8507F128031946CF
:10022000794811F04BFD2021774811F069FE07F164
:100230004403184610F004FE10237B64032387F860
:100240004830002387F84B3007F1440319466F48C4
:1002500010F068FD07F14403184610F0F1FD4FF46B
:10026000A4537B64022387F84930022387F848307F
:10027000002387F84A30002387F84B3007F1440306
:100280001946634810F04EFD06220721604810F021
:100290000DFE06220A215E4810F008FE06220C21FF
:1002A0005B4810F003FE5B4B00229A835A4A5A4B7C
:1002B0001B6823F08063136000BF574B1B6803F07B
:1002C0008063002BF9D1544A534B9B6823F40003FD
:1002D00093605149BB681A07FB689B011343C1F83F
:1002E00084304C493B681B021AB27B681BB2134333
:1002F0001BB243F400731BB29BB20B84454B4FF40B
:1003000070629A83444A444B1B6843F080631360D5
:1003100000BF414B1B6803F00063002BF9D007F1CD
:100320003403184610F002FC0023BB6304237B63F4
:1003300000233B6407F134031946002010F0C4FB8E
:1003400010233B7404237B740423BB740123FB74CC
:1003500007F11003184610F041FB10212F4810F050
:1003600097FD0023FB6402E0FB6C0133FB64FB6C34
:10037000B3F5FA4FF8DB1021284810F07BFD9921E6
:10038000002000F0CFF98021472000F0CBF9802138
:10039000322000F0C7F90021322000F0C3F900211B
:1003A000002000F0BFF90121022000F0BBF9AF21CD
:1003B000042000F0B7F90121082000F0B3F9012171
:1003C000092000F0AFF9C0210E2000F0ABF9E021C8
:1003D000142000F0A7F9E021152000F0A3F99E21D8
:1003E000022000F09FF900BF5037BD4680BD00BF1E
:1003F000E0080020E4080020E8080020EC080020C5
:10040000F0080020F4080020001000400000024026
:1004100000080240003C004000380240000C02404E
:1004200080B483B000AF786000BF0C37BD4680BC9D
:10043000704700BF80B582B000AF7860396000F0CF
:10044000D3F80C4A7B6813600B4A3B6813600B4B74
:1004500000221A60074B1B68002B07D0054B1B6856
:10046000054A1068054A12681146984700BF0837C8
:10047000BD4680BDE0080020E4080020F008002010
:1004800080B500AF00F0B0F8024B00221A6000BF48
:1004900080BD00BFE008002080B582B000AF78606A
:1004A000396000E030BF3968786800F00BF8034627
:1004B00083F00103DBB2002BF4D100BF0837BD4647
:1004C00080BD00BF80B584B000AF78603960002384
:1004D000FB60124B1B68002B01D0002319E00F4A70
:1004E0007B6813600E4A3B6813600E4B0E4A1A601D
:1004F0000E4B0F4A1A600F4B0F4A1A600F4B1B78B6
:10050000DBB283F00103DBB2002B01D000F018F85E
:10051000012318461037BD4680BD00BFE808002003
:10052000EC08002028920020087400402C92002043
:1005300034740040249200202C740040F408002001
:1005400080B500AF1E4B1F4A1A601D4A1E4B1B6828
:100550005B1053601A4B1D4A9A60194B1C4A126873
:10056000DA60174B04225A61154A154B1B6843F099
:10057000010313600121002010F0EEFA0121002098
:1005800010F00EFB0121134811F03CFC104B00222F
:100590001A60114B1B6883F001030F4A13600F4B65
:1005A00001221A700E4B1B68002B07D00C4B1B68E6
:1005B0000C4A1068084A12681146984700BF80BD6F
:1005C00088600240506C010EEC0800200874004066
:1005D000E808002000100040F0080020F408002087
:1005E000E0080020E408002080B400AF094A094B6D
:1005F0001B6823F00103136000BF064B1B6803F068
:100600000103002BF9D1044B00221A7000BFBD4634
:1006100080BC704788600240F408002080B500AFBD
:10062000084A084BDB6843F40063D360064B1B6841
:10063000002B02D0FFF784FF02E0044B00221A7067
:1006400000BF80BD00600240E8080020F4080020E0
:1006500080B582B000AF78600B46FB701346BB706C
:1006600000BF4FF40031786810F0E8FD0346002B1E
:10067000F7D10121786810F043FD00BF1349786875
:1006800010F0ACFD0346002BF8D0BA78FB78194681
:10069000786810F075FDBB78002B08D100BF0C49BD
:1006A000786810F09BFD0346002BF8D00AE0BB7879
:1006B000012B07D100BF0749786810F08FFD034672
:1006C000002BF8D000BF0837BD4680BD01000300F5
:1006D000820007000200030080B582B000AF78609E
:1006E0000B46FB70FB781946786810F067FD00BF79
:1006F0000549786810F072FD0346002BF8D000BF62
:100700000837BD4680BD00BF8400070080B582B0B9
:1007100000AF78600121786810F012FD00BF083743
:10072000BD4680BD80B582B000AF03460A46FB716E
:100730001346BB71002294210948FFF789FFFB791A
:1007400019460748FFF7C8FFBB7919460448FFF769
:10075000C3FF0348FFF7DAFF00BF0837BD4680BD7F
:100760000054004080B483B000AF03463960FB7191
:1007700097F90730002B0BDA0D49FB7903F00F03D3
:10078000043B3A68D2B21201D2B20B441A7609E0A5
:10079000084997F907303A68D2B21201D2B20B4435
:1007A00083F8002300BF0C37BD4680BC704700BFF4
:1007B00000ED00E000E100E080B582B000AF7860BD
:1007C0007B68B3F1807F01D3012311E00A4A7B6883
:1007D00023F07F43013B53600F214FF0FF30FFF7C1
:1007E000C1FF054B00229A60034B07221A600023C9
:1007F00018460837BD4680BD10E000E080B584B0E3
:1008000002AF2C4810F06CFD2A4B5B682A4AA2FB11
:1008100003239B091846FFF7CFFF0121082010F0A2
:1008200047FE4FF470433B6001233B710023BB71D3
:1008300003237B710023FB713B4619461F4810F0D0
:1008400071FA1F4B00931F4B1F4A01211F480DF0E7
:10085000AFFC1F4B1B68002B0FD11B491B480DF031
:1008600011FD1C4B1B68012BF3DD1A4B00221A6093
:100870000021194800F052F8EBE70021002010F0A9
:100880006BF90021002010F08BF90021134810F0C3
:10089000ADF90021124811F0B5FA0D4B00221A6093
:1008A000104B00221A6000BF00BF18460837BD4633
:1008B00080BD00BF80730120D34D6210000C024048
:1008C000040000205800002090730120A86E012031
:1008D000FC080020040900207C28010888600240F0
:1008E000001000400009002080B584B000AF78609F
:1008F0002E21786811F089FBF860FB68002B03D08B
:10090000FA687B689A4201D1034B01E0FB6801332E
:1009100018461037BD4680BD7C28010880B5C4B09C
:1009200000AF3B1D18600A46FB1C1A703B1D07F107
:10093000D402196810460BF0DFF8034687F80F3130
:1009400097F80F31002B4ED12A4B1B68002B49D151
:1009500007F1F00207F1D403114618460BF02EF907
:10096000034687F80F3197F80F31002B3BD197F9E9
:10097000F930002B37D097F9F9302E2B30D007F112
:10098000F0030933C7F8083197F8F83003F0100383
:10099000002BD9D13A1D07F10C00D7F808311268A5
:1009A000154911F0EFFA07F10C031846FFF79CFF09
:1009B00003461946114811F009FB0346002BC3D129
:1009C000FB1C1B78002B05D0FB1C1A78FB1C013A82
:1009D0001A7006E007F10C03184600F039F9B3E786
:1009E00000BFB1E700BF97F80F31184607F58877C9
:1009F000BD4680BDFC080020802801088828010829
:100A000090B58FB002AFF860B9601346FB71FB7907
:100A1000002B05D0854B00221A60854B854A1A6051
:100A2000012387F82F30002387F82D304FF4004141
:100A3000814810F01FFA97F82F30002B37D07C4BED
:100A400019687A4B1B681A467A4811F080FA784B7D
:100A5000784A1A60754B1B68C3F5FA63FB61734BE8
:100A60001B68744A991807F11803FA69F8680AF0C4
:100A70006FFC034687F82E306C4B1A68BB69134431
:100A80006A4A136097F82E30002B03D0012387F8B1
:100A90002D30C0E0FB689A68FB68DB689A420CBFA7
:100AA0000123002387F82D30002387F82F30604B77
:100AB0001A685E4B1B681946104608F0CFFB786237
:100AC0007B6A002B03DA012387F82F308DE0574B28
:100AD0001A687B6AD31A3B61554B1A687B6A1344C8
:100AE0007B61564B1868BA681346DB0013445B02FF
:100AF0001A46534BD41807F1100207F114010023D2
:100B00000093234608F0ACFC38623B6A002B13D0FC
:100B10003B6A13F1020F06D0B3F1FF3F07D1012367
:100B200087F82F3061E0012387F82F305DE0012343
:100B300087F82D3000BF58E03B693C4A13607B6961
:100B40003B4A13603D4B1B683E49184608F0FEFBCC
:100B50003C4B5B68012B41D13A4B1B69BB6235E0D2
:100B6000394B1A681346DB0013441B021A46BB6A52
:100B70005B00D118344B1A681346DB0013441B0288
:100B80001A46BB6A13442E4A32F913202C4B23F821
:100B900011202D4B1A681346DB0013441B021A4622
:100BA000BB6A5B001344591C274B1A681346DB00D1
:100BB00013441B021A46BB6A1344214A32F913201C
:100BC0001F4B23F81120BB6A013BBB62BB6A002BA1
:100BD000C6DA1C4B1B695B001A4A1361194B1B696F
:100BE00019461A4ABB6842F8231097F82E30002B9A
:100BF00011D197F82D3083F00103DBB2002B0AD01E
:100C00007B6A002BFFF617AF104ABB6852F82330FF
:100C1000002B3FF410AF4FF40041074810F038F9B3
:100C200097F82D3018463437BD4690BD080900208E
:100C3000000000200C090020000C0240906E0120F2
:100C400068920020147401205C7301203892002007
:100C500080B5C2B002AF7860012279684A480AF0D4
:100C600005FA0346002B40F08A8007F1800207F165
:100C700008017823009313467822434800F0D2F904
:100C800008F0E0FA0246414B1A60012200213E487A
:100C9000FFF7B6FE034687F8FB300123C7F8FC30A8
:100CA00011E00022D7F8FC103748FFF7A9FE0346F1
:100CB00087F8FB3097F8FB30002B09D1D7F8FC30D0
:100CC0000133C7F8FC30D7F8FC300B2BE9DD00E02E
:100CD00000BF2F4B00221A602E4B00221A602E4BB1
:100CE00001221A7000230622022140F20F10FFF7A2
:100CF0005FFA00212948FFF79DFB254B1A68254B19
:100D00001B689A4239D0234B1B68002219461E48A3
:100D1000FFF776FE034687F8FB3097F8FB3083F049
:100D20000103DBB2002B0DD01A4B1B68591C1C4B66
:100D3000A3FB0123DA0813465B0013449B00CA1A85
:100D4000144B1A6097F8FB30002B03D1154B1B682E
:100D5000012BD2D1FFF794FB0F4B00221A70002316
:100D60000622022140F20F10FFF722FA0020FFF7BF
:100D700057FB05480AF030FD01E030BFBDE707F53D
:100D80008077BD4680BD00BF6C6A0120906E012057
:100D90005C7301205873012060730120A90D0008C5
:100DA000ABAAAAAAFC08002080B588B000AF786082
:100DB000396000233B613B68002B0CD0494BFB6141
:100DC0004FF40051484810F055F84FF48041464820
:100DD00010F05EF80BE0454BFB614FF48041424858
:100DE00010F048F84FF400513F4810F051F8404BD4
:100DF0001B68404A52F823307B617B69B3F5106F62
:100E000002DD4FF410637B61394B1A681346DB0037
:100E100013445B021A46384BD1187B695B001A46B3
:100E2000F86911F089F8FB69BB6100233B6114E0AC
:100E3000BB69B3F90030002B00DA0F331B111BB272
:100E40009BB203F500639BB21AB2BB691A80BB69FF
:100E50000233BB613B6901333B613A697B699A426A
:100E6000E6DBFB69BB61FB69FB6000233B6117E0CC
:100E7000FB68B3F900301A46FB680233B3F900305F
:100E80001344DA0F13445B101AB2BB691A80BB69B2
:100E90000233BB61FB680433FB603B6901333B6198
:100EA0007B69DA0F13445B101A463B699A42DFDC18
:100EB0000F4B1B68591C114BA3FB0123DA08134687
:100EC0005B0013449B00CA1A094B1A600C4B1B7839
:100ED000002B03D07969F869FFF7DEFA00BF2037ED
:100EE000BD4680BDDC100020000C0240DC2200204A
:100EF0005C7301203892002068920020ABAAAAAA55
:100F00006073012080B400AF084B1B68002B04D035
:100F1000064B1B68013B054A1360054B1B680133F8
:100F2000034A136000BFBD4680BC7047686A012059
:100F3000A46E012080B400AF00BFBD4680BC7047E6
:100F400080B588B000AFF860B9607A603B6000237C
:100F50007B610023FB7407F1140307F113010122E5
:100F6000F8680AF0F5F90346002B53D17B69012B91
:100F700050D1BB68013BBB603B685A1EBB689A42BC
:100F800039D307F11403BA687968F8680AF0E0F910
:100F90000346002B03D07A69BB689A4229D1FB7CB7
:100FA000002B05D17A68BB68134400221A702FE029
:100FB000FB7C012B2CD10023FB610023BB610EE0E5
:100FC0007A68BB6913447968FA690A4492F9002087
:100FD0001A70FB690233FB61BB690133BB61FA69BB
:100FE000BB689A42ECD37A68BB69134400221A703A
:100FF0000EE0012312E0FB689A68BB6813441946AF
:10100000F8680AF0FDFB0346002B05D0012305E03C
:1010100000BF01E0012301E000BF00231846203794
:10102000BD4680BD80B594B000AFF860B9607A600D
:101030003B60BB6800221A703B6800221A700023D4
:10104000BB6207F1280307F12C010A22F8680AF0B5
:101050007FF90346002B02D1BB6A0A2B01D0012382
:1010600019E10023FB64BB6A0A2B40F00A8197F860
:101070002C30492B40F0058197F82D30442B40F05F
:10108000008197F82E30332B40F0FB80FB6C0A3345
:10109000FB6497F832305B0503F07E6297F83330DB
:1010A0009B0303F4FE131A4397F83430DB0103F477
:1010B0007E531A4397F8353003F07F031343FB64E4
:1010C00097F82F3087F83F3097F8313003F040031E
:1010D000002B2ED007F1280307F124010422F86821
:1010E0000AF036F997F824305B0503F07E6297F832
:1010F00025309B0303F4FE131A4397F82630DB01D7
:1011000003F47E531A4397F8273003F07F03134309
:10111000BB63BB6B043BBB63FB689A68BB6B13444C
:101120001946F8680AF06CFB0346002B01D0012336
:10113000B1E00223BB649CE007F1280307F118012A
:101140000A22F8680AF004F90346002B14BF0123B1
:101150000023DBB287F8373097F83730002B02D105
:10116000BB6A0A2B01D0012395E03B7E002B00F0E7
:10117000888007F1180303224949184610F030FF10
:101180000346002B7DD007F1100300221A601A716C
:1011900007F1180107F110030422184610F0CCFEE5
:1011A00000237B6400233B6427E097F83F30032B48
:1011B0000DD17B6C1B027B643B6C043307F1500246
:1011C000134413F8383C1A467B6C13447B6497F83D
:1011D0003F30042B0ED17B6CDB017B643B6C043312
:1011E00007F15002134413F8383C03F07F037A6C84
:1011F00013447B643B6C01333B643B6C032BD4D9BD
:1012000007F110032749184610F0E0FE0346002BB3
:101210000CD17B68BA68796CF868FFF791FE0346D9
:10122000002B2BD1BB6C013BBB6422E007F1100308
:101230001D49184610F0CAFE0346002B0CD1BB6DA9
:101240003A68796CF868FFF77BFE0346002B17D1EC
:10125000BB6C013BBB640CE0FB689A687B6C13447D
:101260001946F8680AF0CCFA0346002B01D0012396
:1012700011E0BB6C002B7FF45FAF02E000BF00E029
:1012800000BFF96CF8680AF0BBFA0346002B01D0E6
:10129000012300E0002318465037BD4680BD00BF43
:1012A0008C280108902801089828010880B500AF13
:1012B00000F072F90F4B01221A600E4B1B68012BD4
:1012C0000CD10D4B1B68002B08D10A4B00221A6071
:1012D000094B01221A60FFF791FA0AE0054B1B68DF
:1012E000012BEAD1044B1B68012BE6D1014B0022F4
:1012F0001A60E2E7DC3400200009002080B582B0EB
:1013000000AF00237B6001215E4810F0BFFD034663
:10131000002B00F0B28000F009F95B4B1B68012B39
:1013200001D100F00DF900F0DDF800F00FF9574B96
:101330001B68012B12D1564B1B68B3F5236F0DD1DF
:10134000514B1B68002B03D14F4B01221A6002E066
:101350004D4B00221A604D4B02221A604B4B1B680A
:10136000012B10D14A4B1B68B3F54C7F0BD1494B75
:101370001B68012B04D1484B01221A6000F0D0F801
:10138000424B02221A60414B1B68012B35D1404B66
:101390001B68B3F5316F30D13E4B1B68002B15D164
:1013A0003E4B9B6803F48073002B05D000214FF463
:1013B000807010F05BFB0CE001214FF4807010F0A6
:1013C00055FB4FF4807010F0D9FB02E0324B012244
:1013D0001A60334B1B68012B0CD1324A324B1B680D
:1013E0001360304A4FF48071012010F0A3FA2C4BA7
:1013F00000221A60254B02221A60244B1B68012B25
:101400000ED1234B1B68B3F5226F04D0204B1B6811
:10141000B3F5487F04D100F077F81C4B02221A6024
:101420001A4B1B68012B24D1194B1B68B3F5036FB2
:1014300004D0174B1B68B3F5987F1AD1174B9B68E4
:1014400003F48073002B01D001237B6000F062F86D
:101450007B68012B0AD101214FF4807010F006FB4C
:101460004FF4807010F08AFB00237B60074B022250
:101470001A60044B4FF6FE721A8200BF0837BD4651
:1014800080BD00BF000C0040E0340020EC340020A0
:10149000E834002000090020FC080020002800405B
:1014A000F808002064730120946E012080B500AF1D
:1014B0004FF4805010F07AFB0346002B0ED04FF40F
:1014C000807010F05BFB4FF4805010F0A3FB4FF4E2
:1014D00000300FF019FC024B01221A6000BF80BDE2
:1014E000DC34002080B400AF054B41F6EF725A8324
:1014F000044B4FF6FF725A8300BFBD4680BC704755
:10150000000C02400010024080B400AF00BFBD4696
:1015100080BC704780B400AF00BFBD4680BC704740
:1015200080B400AF00BFBD4680BC704780B500AF3F
:101530000249012010F0ACF900BF80BD34920020B8
:1015400080B400AF00BFBD4680BC704780B400AF20
:101550000D4B1B699BB203F433639AB20B4B1A8099
:101560000B4B1A88094B1B889A4203D0094B002267
:101570001A6004E0074B1B680133064A136000BF82
:10158000BD4680BC704700BF00080240F034002018
:10159000F2340020E434002080B500AFAA480FF0F8
:1015A0009FFE01214FF080500FF0BEFF0121082067
:1015B0000FF0BAFF01214FF400100FF0B5FF012129
:1015C00002200FF0CFFF012110200FF071FF012149
:1015D00008200FF06DFF012104200FF069FF0121A9
:1015E00002200FF065FF012101200FF061FF0020B4
:1015F0000FF056FE01200FF053FE4FF400700FF075
:1016000019FF01200FF044FF00214FF4807010F00B
:101610002DFA01200FF054FE00BF61200FF0C0FF33
:101620000346002BF9D04FF400300FF06DFB874BD1
:101630004FF400321A60854B00221A71834B082246
:101640005A71824B01229A7180480FF0EBFA804860
:1016500010F09EFB7E4B4FF4FA525A607C4B1422E2
:101660001A807B497B4810F029FB7B480FF0B6F9C4
:10167000794B32221A70784B00225A70764B002236
:101680009A70754B0122DA7073480FF0A7F9734B0B
:1016900040221A60714B7F225A60704BFF229A6081
:1016A0006E480FF0B7FF6E4B4022DA706C4B12227F
:1016B0001A706B4B00225A70694B00229A7068496D
:1016C000012010F063F8674B0022DA70654B12229C
:1016D0001A70644B00225A70624B00229A70614B60
:1016E0004FF000425A605F4A4FF48071012010F0C1
:1016F00021F959480FF072F9574B29221A70564BAD
:1017000000225A70544B00229A70534B0122DA7017
:1017100051480FF063F954480FF092FB524B4FF4CD
:1017200010721A60504B02221A714F4B02225A71EA
:101730004D4B01229A714C4B0122DA714A494B48B8
:101740000FF0F0FA0422062148480FF0AFFB042204
:10175000092146480FF0AAFB454B464A1A60444B04
:1017600000229A80424B4BF6FF72DA80404B0022F7
:101770001A813F4B00225A813D4B4FF480429A819F
:101780003B493D480FF0DAFB01213B480FF098FC44
:1017900035480FF055FB344B4FF433621A60324B2F
:1017A00000225A71304B00221A712F4B00229A717D
:1017B0002D4B0122DA712C4930480FF0B3FA2A4838
:1017C0000FF03EFB284B4FF6C0721A60264B0022EA
:1017D0005A71254B01221A71234B00229A71224B18
:1017E0000022DA71204926480FF09CFA1E480FF0BB
:1017F00027FB1D4B4FF479621A601B4B00225A7174
:10180000194B01221A71184B00229A71164B0022B3
:10181000DA7115491B480FF085FA01214FF4805009
:1018200010F070F90B4A0B4B9B899BB243F00103FC
:101830009BB29381074A074B1B889BB243F001037D
:101840009BB2138000BF80BD8073012060740120B3
:1018500040740120000C00405C740120747301206E
:101860003492002064730120687401200004024057
:1018700030740120A086010000540040000802409E
:1018800000100240000C024080B400AF00BFBD4613
:1018900080BC704780B400AFFEE700BF80B400AFEB
:1018A000FEE700BF80B400AFFEE700BF80B400AF2A
:1018B000FEE700BF80B400AF00BFBD4680BC7047EC
:1018C00080B400AF00BFBD4680BC704780B400AF9D
:1018D00000BFBD4680BC704780B500AFFFF712FB6C
:1018E00000BF80BD80B500AF02200FF00DFA00BF31
:1018F00080BD00BF80B500AF01200FF005FA00BF2A
:1019000080BD00BF80B500AF00F0C8F900BF80BD4A
:1019100080B500AF02480BF0A5FA00BF80BD00BF44
:10192000A86E012080B485B000AF78603960104B9C
:101930001B68002B02D10E4B0E4A1A600C4B1B6821
:10194000FB600B4B1A683B6813446A46934202D90A
:101950004FF0FF3306E0064B1A683B681344044A15
:101960001360FB6818461437BD4680BC704700BF43
:10197000F43400209C81012080B500AF124A124B44
:101980001B6843F0010313600F4B00229A600E4A5C
:101990000D4B1B6823F0847323F4803313600A4BD0
:1019A0000A4A5A60084A084B1B6823F480231360D4
:1019B000054B0022DA6000F00DF8054B4FF0006295
:1019C0009A6000BF80BD00BF003802401030002484
:1019D00000ED00E080B483B000AF00237B60002303
:1019E0003B60354A344B1B6843F480331360324B01
:1019F0001B6803F400333B607B6801337B603B680A
:101A0000002B03D17B68B3F5A06FF0D12A4B1B6884
:101A100003F40033002B02D001233B6001E00023DC
:101A20003B603B68012B42D1234A234B1B6C43F0A4
:101A300080531364214A214B1B6843F48043136095
:101A40001D4A1D4B9B6893601B4A1B4B9B6843F4CC
:101A500000439360184A184B9B6843F4A05393606B
:101A6000154B174A5A60144A134B1B6843F0807396
:101A7000136000BF104B1B6803F00073002BF9D0FC
:101A8000104B40F205621A600B4A0B4B9B6823F027
:101A900003039360084A084B9B6843F0020393607A
:101AA00000BF054B9B6803F00C03082BF9D100BF66
:101AB0000C37BD4680BC70470038024000700040C3
:101AC00008544007003C024080B584B000AF786005
:101AD000012101200FF0ECFC4FF4D053BB60032335
:101AE0007B7302233B730023BB730023FB7307F15B
:101AF000080319461A480FF015F90A220921184857
:101B00000FF0D4F90A220B2115480FF0CFF90A2261
:101B10000C2113480FF0CAF94FF48063BB60012316
:101B2000BB730123FB7303237B7307F1080319467F
:101B30000B480FF0F7F80A220A2109480FF0B6F90E
:101B400001214FF480400FF00DFD012180200FF0A6
:101B5000CDFC00F06BF800BF1037BD4680BD00BF64
:101B60000000024080B584B000AF78604FF4C060E0
:101B70000EF022FF43233B7301237B730123BB73CE
:101B80000123FB7307F10C0318460EF027FF172300
:101B90003B7301237B730223BB730123FB7307F1A8
:101BA0000C0318460EF01AFF00BF1037BD4680BD6B
:101BB00080B582B000AF78600B46FB70FB78002BDD
:101BC00004D1012105480FF055F903E00121034834
:101BD0000FF05EF900BF0837BD4680BD0008024027
:101BE00080B584B000AF7860012104200FF060FC64
:101BF0000123BB6002237B7301233B730023BB7370
:101C00000023FB7307F10803194607480FF08AF811
:101C1000012105480FF02EF9C82000F033F800BF6D
:101C20001037BD4680BD00BF0008024080B582B0BD
:101C300000AF00214FF000600EF030FF4FF4A060C5
:101C40000EF0BAFE1C233B7101237B710123BB7193
:101C50000123FB713B1D18460EF0C0FE012101203F
:101C60000FF062FC00BF0837BD4680BD80B582B072
:101C700000AF78600221786800F032F800BF0837C2
:101C8000BD4680BD80B582B000AF78600121786824
:101C900000F026F800BF0837BD4680BD80B500AF14
:101CA00001214FF0804010F0F1F80346002B13D0D3
:101CB00001214FF0804010F013F9084B1B68002BF6
:101CC00005D0064B1B68013B044A136004E0002169
:101CD0004FF0804010F096F800BF80BDF83400202F
:101CE00080B582B000AF78600B46FB700A4A7B6813
:101CF0001360FB78184600F011F800BF064B1B6814
:101D0000002BFBD100214FF0804010F07BF800BF8A
:101D10000837BD4680BD00BFF834002080B586B0CE
:101D200000AF0346FB7100214FF0804010F06AF8CD
:101D3000002201214FF0804010F084F8FB79022B43
:101D400002D10B233B6105E0FB79012B02D142F666
:101D5000DF633B610523BB810023BB820023FB8142
:101D600007F10C0319464FF080400FF0A7FF012147
:101D70004FF0804010F0B4F801214FF0804010F097
:101D800021F8012201214FF0804010F05BF8012181
:101D90004FF0804010F036F800BF1837BD4680BDC8
:101DA00080B400AF00BFBD4680BC704780B500AFB7
:101DB0004FF4804102480FF05DF800BF80BD00BFC6
:101DC000000C024080B400AF00BFBD4680BC70472D
:101DD00080B500AF4FF4804106480FF059F84FF43A
:101DE000805104480FF054F8034B00221A6000BFE2
:101DF00080BD00BF000C02400409002080B400AF89
:101E000000BFBD4680BC704780B483B000AF0346BE
:101E1000FB7100BF0C37BD4680BC704780B483B0F7
:101E200000AF786000BF0C37BD4680BC704700BF74
:101E300080B400AF00BFBD4680BC704780B485B0A1
:101E400000AFF860B9607A6000BF1437BD4680BC4F
:101E5000704700BF80B483B000AF786000BF0C371C
:101E6000BD4680BC704700BF80B483B000AF7860CF
:101E700000BF0C37BD4680BC704700BF80B483B044
:101E800000AF786000BF0C37BD4680BC704700BF14
:101E900080B500AF4FF4FA70FFF7F4FE00F016F8CB
:101EA00000BF80BD80B400AF00BFBD4680BC70479E
:101EB00080B400AF01231846BD4680BC704700BF08
:101EC00080B400AF00BFBD4680BC704780B500AF96
:101ED0000B49002009F0A0F80346002B02D04FF078
:101EE000FF330AE0074B1B680133064A13604FF4C7
:101EF000805105480EF0BEFF0023184680BD00BF8C
:101F0000C878012004090020000C024080B400AF12
:101F100000BFBD4680BC704780B485B000AFF8609C
:101F2000B9607A60FB687A681A60FB6800225A60C0
:101F3000FB6800229A60FB68BA68DA6000BF143759
:101F4000BD4680BC704700BF80B485B000AF7860EC
:101F50007B68DB68FB60FB68032B35DD7B681B68F7
:101F6000591C7A6811601B781B061A467B685A60F8
:101F70007B681B68591C7A6811601B781A047B689F
:101F80005B681A437B685A607B681B68591C7A68D7
:101F900011601B781A027B685B681A437B685A6081
:101FA0007B681B68591C7A6811601A787B685B68CB
:101FB0001A437B685A607B6820229A607B68DB68E2
:101FC0001A1F7B68DA602AE07B6800225A600FE003
:101FD0007B681B68591C7A6811601A787B685B689B
:101FE0001A437B685A607B685B681A027B685A6098
:101FF000FB685A1EFA60002BEAD17B685A687B683E
:10200000DB68C3F10303DB009A407B685A607B689E
:10201000DB68DA007B689A607B680022DA6000BFC8
:102020001437BD4680BC704780B584B000AF78607F
:1020300039603B6803F01F033B607B685A683B686C
:10204000C3F11F0322FA03F3FB60FB685B08FB602C
:102050007B685A683B689A407B685A607B689A68DC
:102060003B68D21A7B689A607B689B68002B1EDAFB
:102070007B689B685B42BB607868FFF765FF7B68A5
:102080005A68BB68C3F1200322FA03F3FA681343CA
:10209000FB607B689B681A46BB68D31A1A467B684C
:1020A0009A607B685A68BB689A407B685A60FB6894
:1020B00018461037BD4680BD80B487B000AFF860C9
:1020C000B9607A60FB681B681A46BB68D31ADB00EC
:1020D0007B61FB689B687A69D31A7B617A697B684C
:1020E000D31A7B617B6918461C37BD4680BC70479C
:1020F00080B485B000AF78607B68002B03D07B682C
:102100001B68002B02D14FF0FF3309E07B681B688E
:10211000FB60FB685B69002B14BF01230023DBB26B
:1021200018461437BD4680BC704700BF90B484B0D9
:1021300000AF786039607B68002B0ED07B681B682D
:10214000002B0AD03B681B78FF2B06D13B6801337C
:102150001B7803F0E003E02B02D04FF0FF3355E192
:102160007B681B68FB603B6801331B78DB08DBB2D4
:1021700003F00303BB60BB68002B09D0BB6803F00E
:102180000103002B0CBF01230023DBB2DAB200E015
:102190000222FB681A703B6801331B785B08DBB2D4
:1021A00003F00303C3F10402FB685A603B68013388
:1021B0001B7803F00103002B0CBF01230023DBB2CB
:1021C0001A46FB689A603B6802331B781B09DBB236
:1021D00003F00F02FB68DA603B6802331B789B0850
:1021E000DBB203F00302FB681A613B6802331B7821
:1021F0005B08DBB203F00102FB685A613B68023303
:102200001B7803F00102FB689A613B6803331B787B
:102210009B09DAB2FB681A773B6803331B781B090A
:10222000DBB203F00302FB681A623B6803331B78DE
:10223000DB08DBB203F00102FB685A623B68033340
:102240001B789B08DBB203F00102FB689A623B68D3
:1022500003331B7803F00302FB68DA62FB681B6937
:10226000032B07D0FB685B68042B03D0FB68DB689B
:102270000F2B02D14FF0FF33C8E0FB681B781946E3
:10228000FB681B694A2202FB03F2DE2303FB01F316
:102290001344614A1A44FB685A63FB681B7F012B95
:1022A00002D0FB6800221A62FB681B7F032B01D15E
:1022B000012200E002227B68C3F8BC27FB681B7880
:1022C0001846FB681A69554903465B0003441344EA
:1022D00051F823207B68C3F8C027FB681B78002BCC
:1022E00001D1022200E001227B68C3F8C427FB6809
:1022F0001B781846FB685B685A1E494903465B0019
:102300000344134431F913301A467B68D3F8C437B9
:1023100092FBF3F27B68C3F8C827FB685A687B68B6
:10232000C3F8D027FB681A787B6883F8D427FB684A
:10233000DB68002B56D0FB681B781946FB685B688E
:10234000013BFA68D068374C1A461201D21A0B4684
:102350005B000B441901C91A5318034434F91330B4
:102360001A464FF47A7303FB02F27B68C3F8B8276E
:10237000FB681B781946FB681B69FA68D0682A4C11
:102380001A461201D21A0B465B000B441901C91AF6
:102390005318034434F913301946FB681B781C4664
:1023A000FB681B7F032B14BF01230023DBB21846FD
:1023B0001E4A6300034432F91330CB1A1A1FFB681C
:1023C0009B68002B01D0022300E00023D31AFA6897
:1023D0005269002A14BF01220022D2B21A447B683B
:1023E000C3F8CC27FB689B68002B0BD03B680433F9
:1023F0001B781B023A68053212781A43FB681A638D
:10240000062303E0FB6800221A63042318461037F2
:10241000BD4690BC704700BFD459010870570108F1
:10242000A458010894570108C4580108B858010875
:1024300080B58EB000AF786039607B68002B07D024
:102440007B681B68002B03D07B685B68002B02D184
:102450004FF0FF3386E17B681B687B627B685B68BB
:102460003B6207F10803FB617B6A1B78002B47D1B5
:102470007B6A1B7F032B01D1112300E02023BB6269
:102480003A68B96AF869FFF747FD0921F869FFF76B
:10249000CBFD03461A463B6A1A607B6A1B7F032BFF
:1024A00001D1052300E003231946F869FFF7BCFDBD
:1024B00003461A463B6A5A6000233B6319E0002337
:1024C000FB6210E00121F869FFF7AEFD03461846F4
:1024D0003B6A3A6B9100FA6A0A44023243F82200DE
:1024E000FB6A0133FB62FB6A032BEBDD3B6B0133C1
:1024F0003B637B68D3F8BC273B6B9A42DFDC23E06D
:102500007B6A1B7F032B01D1092300E01123BB62EF
:102510003A68B96AF869FFF7FFFC0821F869FFF724
:1025200083FD03461A463B6A1A607B6A1B7F032BB6
:1025300001D1012300E002231946F869FFF774FD79
:1025400003461A463B6A5A6000237B63FDE0002382
:102550003B63F0E03B6B1A46D2001A44D3001A46A4
:10256000796B0B46DB000B441B01134428333A6A9A
:102570001344BB610C21F869FFF756FD03461A4668
:10258000BB691A600921F869FFF74EFD03461A4638
:10259000BB695A600821F869FFF746FD03461A46F1
:1025A000BB699A607B6A1B78002B01D1042300E091
:1025B00009231946F869FFF737FD03461A46BB6938
:1025C000DA600121F869FFF72FFD03461A46BB695F
:1025D0001A61BB691B69002B5ED00221F869FFF705
:1025E00023FD03461A46BB695A610121F869FFF7CA
:1025F0001BFD03461A46BB699A610521F869FFF77E
:1026000013FD03461A46BB69DA610521F869FFF735
:102610000BFD03461A46BB691A62BB6900225A6267
:102620000321F869FFF700FD03461A46BB699A6269
:102630000321F869FFF7F8FC03461A46BB69DA6222
:102640000321F869FFF7F0FC03461A46BB691A63D9
:10265000BB695B69002B09D1BB6900225A60BB6969
:1026600000221A60BB690022DA600EE0BB695B6978
:10267000022B07D1BB699B69002B03D1BB690822E0
:102680005A6302E0BB6907225A63BB695B6BC3F103
:102690001402BB699A632DE0BB6900225A61BB69D1
:1026A00000229A610521F869FFF7BEFC03461A462D
:1026B000BB69DA610521F869FFF7B6FC03461A46E3
:1026C000BB691A620521F869FFF7AEFC03461A469A
:1026D000BB695A620421F869FFF7A6FC03461A4653
:1026E000BB695A630321F869FFF79EFC03461A464B
:1026F000BB699A637B6A1B78002B06D10121F869BC
:10270000FFF792FC03461A4600E00022BB69DA6339
:102710000121F869FFF788FC03461A46BB691A6471
:102720000121F869FFF780FC03461A46BB695A6429
:102730003B6B01333B637B68D3F8BC273B6B9A420E
:102740003FF708AF7B6B01337B637B68D3F8C4270B
:102750007B6B9A423FF7FBAE3B6A1A687B68C3F813
:10276000D827BB6A18463837BD4680BD80B485B0CF
:1027700000AF786039607B68BB600023FB6007E0D6
:10278000FB68BA68134400221A70FB680133FB60CF
:10279000FA683B689A42F3DB00BF1437BD4680BC41
:1027A000704700BF80B588B000AF334BFB61334B3F
:1027B000BB61334B7B61334B3B61334BFB60334B32
:1027C000BB60334B7B60334B3B60FB69BA691A607B
:1027D000FB697A695A60FB693A699A60FB69FA6831
:1027E000DA60FB69BA681A61FB697A685A61FB6949
:1027F0003A689A61BB69002B11D07B69002B0ED01F
:102800003B69002B0BD0FB68002B08D0BB68002B6A
:1028100005D07B68002B02D03B68002B04D1F869FF
:1028200000F03AF8002322E03821B869FFF79EFF54
:102830004FF4A4717869FFF799FF4FF48E713869EE
:10284000FFF794FF41F21021F868FFF78FFF4FF474
:102850005271B868FFF78AFF4FF4D9517868FFF7D3
:1028600085FF42F204213868FFF780FFFB691846B4
:102870002037BD4680BD00BFFC340020EC3C00206A
:10288000243D00206C3E0020883F0020985100200D
:10289000E05400200070002080B483B000AF786066
:1028A0007B68002B0C37BD4680BC704780B485B078
:1028B00000AF7860396079683B6881FB0323FA6078
:1028C0003B603B6818461437BD4680BC704700BF6C
:1028D00090B59FB000AFF860B9607A603B60084B7C
:1028E000BB660023FB66D7F88830052B1DDCD7F8C4
:1028F0008830C3F10603FB6600237B6712E000BF4C
:10290000A02801087B6F9B00FA6813447A6F92003D
:10291000F9680A441168FA6E41FA02F21A607B6F94
:1029200001337B677B6F1F2BECDDFB681B683B660D
:10293000FB68DB6FFB65FB68DB6BBB65FB681B6CD7
:102940007B653A6EFB6D13443B65BB6E1A1DBA6620
:1029500018683A6EFB6DD31A1946FFF7A7FF0346B6
:102960005B00FB64BA6D7B6D1344BB64BB6E1A1DC8
:10297000BA661868BA6D7B6DD31A1946FFF796FFD1
:1029800003465B017B643A6DBB6C1A44FB681A60BA
:10299000FB6803F13C04BB6E18683A6DBB6CD31A3C
:1029A0001946FFF783FF03465B002360FB68403353
:1029B000796CFA6C0A441A60FB6803F17C04BB6E04
:1029C0001A1DBA661868FA6C7B6CD31A1946FFF7A1
:1029D0006DFF03465B002360FB685B683B66FB683A
:1029E0009B6FFB65FB689B6BBB65FB685B6C7B65EA
:1029F0003A6EFB6D13443B65BB6E1A1DBA661868D0
:102A00003A6EFB6DD31A1946FFF750FF03465B0081
:102A1000FB64BA6D7B6D1344BB64BB6E1A1DBA6652
:102A20001868BA6D7B6DD31A1946FFF73FFF03464E
:102A3000DB007B64FB680433396DBA6C0A441A60AE
:102A4000FB6803F13804BB6E18683A6DBB6CD31A8F
:102A50001946FFF72BFF03465B002360FB684433F6
:102A6000796CFA6C0A441A60FB6803F17804BB6E57
:102A70001A1DBA661868FA6C7B6CD31A1946FFF7F0
:102A800015FF03465B002360FB689B683B66FB68A1
:102A90005B6FFB65FB685B6BBB65FB689B6C7B6579
:102AA0003A6EFB6D13443B65BB6E1A1DBA6618681F
:102AB0003A6EFB6DD31A1946FFF7F8FE03465B002A
:102AC000FB64BA6D7B6D1344BB64BB6E1A1DBA66A2
:102AD0001868BA6D7B6DD31A1946FFF7E7FE0346F7
:102AE000DB007B64FB680833396DBA6C0A441A60FA
:102AF000FB6803F13404BB6E18683A6DBB6CD31AE3
:102B00001946FFF7D3FE03465B002360FB6848339A
:102B1000796CFA6C0A441A60FB6803F17404BB6EAA
:102B20001A1DBA661868FA6C7B6CD31A1946FFF73F
:102B3000BDFE03465B002360FB68DB683B66FB6809
:102B40001B6FFB65FB681B6BBB65FB68DB6C7B6508
:102B50003A6EFB6D13443B65BB6E1A1DBA6618686E
:102B60003A6EFB6DD31A1946FFF7A0FE03465B00D1
:102B7000FB64BA6D7B6D1344BB64BB6E1A1DBA66F1
:102B80001868BA6D7B6DD31A1946FFF78FFE03469E
:102B90009B007B64FB680C33396DBA6C0A441A6085
:102BA000FB6803F13004BB6E18683A6DBB6CD31A36
:102BB0001946FFF77BFE03465B002360FB684C333E
:102BC000796CFA6C0A441A60FB6803F17004BB6EFE
:102BD0001A1DBA661868FA6C7B6CD31A1946FFF78F
:102BE00065FE03465B002360FB681B693B66FB6870
:102BF000DB6EFB65FB68DB6ABB65FB681B6D7B6599
:102C00003A6EFB6D13443B65BB6E1A1DBA661868BD
:102C10003A6EFB6DD31A1946FFF748FE03465B0078
:102C2000FB64BA6D7B6D1344BB64BB6E1A1DBA6640
:102C30001868BA6D7B6DD31A1946FFF737FE034645
:102C40009B007B64FB681033396DBA6C0A441A60D0
:102C5000FB6803F12C04BB6E18683A6DBB6CD31A89
:102C60001946FFF723FE03465B002360FB685033E1
:102C7000796CFA6C0A441A60FB6803F16C04BB6E51
:102C80001A1DBA661868FA6C7B6CD31A1946FFF7DE
:102C90000DFE03465B002360FB685B693B66FB68D7
:102CA0009B6EFB65FB689B6ABB65FB685B6D7B6528
:102CB0003A6EFB6D13443B65BB6E1A1DBA6618680D
:102CC0003A6EFB6DD31A1946FFF7F0FD03465B0021
:102CD000FB64BA6D7B6D1344BB64BB6E1A1DBA6690
:102CE0001868BA6D7B6DD31A1946FFF7DFFD0346EE
:102CF0005B007B64FB681433396DBA6C0A441A605C
:102D0000FB6803F12804BB6E18683A6DBB6CD31ADC
:102D10001946FFF7CBFD03469B002360FB68543345
:102D2000796CFA6C0A441A60FB6803F16804BB6EA4
:102D30001A1DBA661868FA6C7B6CD31A1946FFF72D
:102D4000B5FD03469B002360FB689B693B66FB68FF
:102D50005B6EFB65FB685B6ABB65FB689B6D7B65B7
:102D60003A6EFB6D13443B65BB6E1A1DBA6618685C
:102D70003A6EFB6DD31A1946FFF798FD03465B00C8
:102D8000FB64BA6D7B6D1344BB64BB6E1A1DBA66DF
:102D90001868BA6D7B6DD31A1946FFF787FD034695
:102DA0005B007B64FB681833396DBA6C0A441A60A7
:102DB000FB6803F12404BB6E18683A6DBB6CD31A30
:102DC0001946FFF773FD03469B002360FB685833E9
:102DD000796CFA6C0A441A60FB6803F16404BB6EF8
:102DE0001A1DBA661868FA6C7B6CD31A1946FFF77D
:102DF0005DFD03469B002360FB68DB693B66FB6867
:102E00001B6EFB65FB681B6ABB65FB68DB6D7B6546
:102E10003A6EFB6D13443B65BB6E1A1DBA661868AB
:102E20003A6EFB6DD31A1946FFF740FD03465B006F
:102E3000FB64BA6D7B6D1344BB64BB6E1A1DBA662E
:102E40001868BA6D7B6DD31A1946FFF72FFD03463C
:102E50005B007B64FB681C33396DBA6C0A441A60F2
:102E6000FB6803F12004BB6E18683A6DBB6CD31A83
:102E70001946FFF71BFD03461B012360FB685C330B
:102E8000796CFA6C0A441A60FB6803F16004BB6E4B
:102E90001A1DBA661868FA6C7B6CD31A1946FFF7CC
:102EA00005FD03461B01236004237B6704E1FB68E7
:102EB0001B683B66FB68DB693B64FB68DB68FB65A2
:102EC000FB681B69FB633A6E3B6C13443B65BB6E4E
:102ED0001A1DBA6618683A6E3B6CD31A1946FFF78A
:102EE000E5FC03465B00BB63FA6DFB6B1344FB64BC
:102EF000BB6E1A1DBA661868FA6DFB6BD31A1946B9
:102F0000FFF7D4FC0346DB007B633A6DFB6C134494
:102F10003B66BB6E18683A6DFB6CD31A1946FFF717
:102F2000C5FC03465B00FB657A6BBB6B1344FB631C
:102F3000BB6E1A1DBA661868BA6B7B6BD31A19463A
:102F4000FFF7B4FC03465B003B64FB685B68BB6552
:102F5000FB689B693B63FB689B687B65FB685B69FF
:102F6000FB62BA6D3B6B1344BB64BB6E1A1DBA6641
:102F70001868BA6D3B6BD31A1946FFF797FC0346E6
:102F80005B00BB627A6DFB6A13447B64BB6E1A1DE7
:102F9000BA6618687A6DFB6AD31A1946FFF786FC81
:102FA00003465B007B62BA6C7B6C1344BB65BB6EF3
:102FB0001868BA6C7B6CD31A1946FFF777FC034686
:102FC0009B007B657A6ABB6A1344FB62BB6E1A1D69
:102FD000BA661868BA6A7B6AD31A1946FFF766FCA4
:102FE00003469B003B633A6EBB6D13443B653A6EF0
:102FF000BB6DD31A19464548FFF758FC03465B00E2
:10300000BB647A6DFB6D13447B64FA6D7B6DD31AE0
:1030100019463E48FFF74AFC03465B00FB64FB6829
:103020003A6D1A60FB680433BA6C1A60FB680833A7
:10303000796CFA6C0A441A60FB680C33FA6C1A60FB
:10304000FA6BFB6A13447B63FA6BFB6AD31A19466B
:103050002E48FFF72BFC03465B007B623A6B3B6C10
:103060001344BB623A6C3B6BD31A19462748FFF7EF
:103070001DFC03465B00BB63BA6ABB6B1344BB62B7
:10308000FB681033796BBA6A0A441A60FB68143320
:10309000796ABA6B0A441A60FB681833796ABA6AAB
:1030A0000A441A60FB681C33BA6B1A60FB68203351
:1030B000FB607B6F013B7B677B6F002B3FF7F7AEBD
:1030C000FB68803BFB607A683B68D31A03F0070219
:1030D0003B68002B01D0002301E04FF488631344C8
:1030E00003F580639B00BA6813447B66FB681B682A
:1030F0003B677B6E20333A6F1A601A687B6E1A60EA
:103100003B68002B04D04FF4886202E09A79825A1F
:1031100000227B6813449B00BA6813447B66FB68FB
:103120005B683B677B6E20333A6F1A601A687B6E70
:103130001A607B6E03F580737B66FB6864331A68E4
:10314000FB6874331B6813443B62FB6844331A68A2
:103150003B6A13443B677B6E20333A6F1A601A68F0
:103160007B6E1A607B6E03F580737B66FB6824338D
:103170001A68FB6834331B6813443B677B6E20334B
:103180003A6F1A601A687B6E1A607B6E03F5807363
:103190007B66FB6854331A683B6A13443B677B6E5B
:1031A00020333A6F1A601A687B6E1A607B6E03F5E3
:1031B00080737B66FB6874331A68FB686C331B682A
:1031C00013443B62FB685B693B677B6E20333A6F5D
:1031D0001A601A687B6E1A607B6E03F580737B66DB
:1031E000FB6854331A683B6A13443B677B6E203399
:1031F0003A6F1A601A687B6E1A607B6E03F58073F3
:103200007B66FB6834331A68FB682C331B681344F5
:103210003B677B6E20333A6F1A601A687B6E1A60C8
:103220007B6E03F580737B66FB684C331A683B6AE0
:1032300013443B677B6E20333A6F1A601A687B6ECB
:103240001A607B6E03F580737B66FB686C331A68CB
:10325000FB687C331B6813443B62FB68DB683B679D
:103260007B6E20333A6F1A601A687B6E1A607B6E31
:1032700003F580737B66FB684C331A683B6A134422
:103280003B677B6E20333A6F1A601A687B6E1A6058
:103290007B6E03F580737B66FB682C331A68FB68D2
:1032A0003C331B6813443B677B6E20333A6F1A60D4
:1032B0001A687B6E1A607B6E03F580737B66FB6811
:1032C0005C331A683B6A13443B677B6E20333A6F6A
:1032D0001A601A687B6E1A607B6E03F580737B66DA
:1032E000FB68DB6F3B62FB68DB693B677B6E20330F
:1032F0003A6F1A601A687B6E1A607B6E03F58073F2
:103300007B66FB685C331A683B6A13443B677B6EE1
:1033100020333A6F1A601A687B6E1A607B6E03F571
:1033200080737B66FB68DB6B3B677B6E20333A6F99
:103330001A601A687B6E1A607B6E03F580737B6679
:103340003B6A3B677B6E20333A6F1A601A687B6E6C
:103350001A607A683B68D31A03F007023B68002BB7
:1033600001D0002301E04FF48863134410339B0025
:10337000BA6813447B66FB685B683B677B6E2033EF
:103380003A6F1A601A687B6E1A607B6E03F5807361
:103390007B66FB6878331A68FB6864331B681344E8
:1033A0003B62FB6844331A683B6A13443B677B6E9D
:1033B00020333A6F1A601A687B6E1A607B6E03F5D1
:1033C00080737B66FB6838331A68FB6824331B689C
:1033D00013443B677B6E20333A6F1A601A687B6E2A
:1033E0001A607B6E03F580737B66FB6858331A683E
:1033F0003B6A13443B677B6E20333A6F1A601A684E
:103400007B6E1A607B6E03F580737B66FB689B693D
:103410003B677B6E20333A6F1A601A687B6E1A60C6
:103420007B6E03F580737B66FB6868331A68FB6804
:1034300078331B6813443B62FB6858331A683B6A55
:1034400013443B677B6E20333A6F1A601A687B6EB9
:103450001A607B6E03F580737B66FB6828331A68FD
:10346000FB6838331B6813443B677B6E20333A6F2D
:103470001A601A687B6E1A607B6E03F580737B6638
:10348000FB6848331A683B6A13443B677B6E203302
:103490003A6F1A601A687B6E1A607B6E03F5807350
:1034A0007B66FB689B683B677B6E20333A6F1A60D4
:1034B0001A687B6E1A607B6E03F580737B66FB680F
:1034C00070331A68FB6868331B6813443B62FB68FF
:1034D00048331A683B6A13443B677B6E20333A6F6C
:1034E0001A601A687B6E1A607B6E03F580737B66C8
:1034F000FB6830331A68FB6828331B6813443B674A
:103500007B6E20333A6F1A601A687B6E1A607B6E8E
:1035100003F580737B66FB6850331A683B6A13447B
:103520003B677B6E20333A6F1A601A687B6E1A60B5
:103530007B6E03F580737B66FB681B693B677B6E64
:1035400020333A6F1A601A687B6E1A607B6E03F53F
:1035500080737B66FB6860331A68FB6870331B6896
:1035600013443B62FB6850331A683B6A13443B6761
:103570007B6E20333A6F1A601A687B6E1A607B6E1E
:1035800003F580737B66FB6820331A68FB68303371
:103590001B6813443B677B6E20333A6F1A601A68CE
:1035A0007B6E1A607B6E03F580737B66FB6840332D
:1035B0001A683B6A13443B677B6E20333A6F1A608C
:1035C0001A687B6E1A60FB6E002B00F0B2807A687E
:1035D0003B68D31A03F007023B68002B01D000239D
:1035E00001E04FF48863134403F580639B00BA68DD
:1035F00013447B667B6E1B683B673B6FDB17FB618D
:10360000FB6EC3F11F033A6F1A41FB699A4209D05E
:10361000FB6EC3F11F03012202FA03F35A1EFB697A
:1036200053403B677B6E2033396FFA6E01FA02F22A
:103630001A601A687B6E1A603B68002B02D04FF448
:10364000886200E000227B6813449B00BA68134440
:103650007B6610237B6728E07B6E1B683B673B6FB4
:10366000DB17BB61FB6EC3F11F033A6F1A41BB69E5
:103670009A4209D0FB6EC3F11F03012202FA03F341
:103680005A1EBB6953403B677B6E2033396FFA6E1D
:1036900001FA02F21A601A687B6E1A607B6E03F5FB
:1036A00080737B667B6F01337B677B6F1F2BD3DD62
:1036B0007A683B68D31A03F007023B68002B01D0FD
:1036C000002301E04FF48863134410339B00BA6871
:1036D00013447B660F237B6728E07B6E1B683B6788
:1036E0003B6FDB177B61FB6EC3F11F033A6F1A411F
:1036F0007B699A4209D0FB6EC3F11F03012202FAD3
:1037000003F35A1E7B6953403B677B6E2033396F4E
:10371000FA6E01FA02F21A601A687B6E1A607B6E0A
:1037200003F580737B667B6F013B7B677B6F002BB0
:10373000D3DA00BF7C37BD4690BD00BF80B485B0F2
:1037400000AF78607B68B3FA83F3FB60FB681846D0
:103750001437BD4680BC7047F0B595B006AF7860B1
:1037600039607B68002B13D07B681B68002B0FD05F
:103770007B685B68002B0BD07B689B68002B07D0B5
:103780007B68DB68002B03D07B681B69002B02D1B0
:103790004FF0FF339BE17B681B68BB627B685B6813
:1037A0007B627B689B683B627B68DB68FB617B6854
:1037B0001B69BB61BB6903F546737B6100233B61F9
:1037C0003B69FB6000233B6345E03A6B1346DB003B
:1037D00013441B02FA69D418BD693B6B03F590636F
:1037E0009B00FA69D6183B6B1A46D2001A44D300E4
:1037F0001A4639680B46DB000B441B01134428337F
:103800007A6AD0183B6B1A465201D21A53001A46F4
:1038100039680B465B015B1A9B0013443A6AD11866
:103820003A6B13465B001344DB001A467B69134472
:10383000029301910090BB6A32462946204600F06F
:103840009FFA0146FB693A6B02F2824243F822106A
:103850003B6B01333B637B68D3F8BC273B6B9A42DD
:10386000B3DCBB6A1B6A002B62D0FB6903F5905383
:1038700008331B68002B06DDFB6903F590530C33FE
:103880001B68002B54DC00237B631BE0FB697A6B15
:1038900053F82230B3F1404F04DCFB697A6B8E4958
:1038A00043F82210FB697A6B53F82230B3F1804F52
:1038B00005DBFB697A6B6FF0404143F822107B6BAC
:1038C00001337B63FB6903F590531A687B6B9A4263
:1038D000DCDC00237B6323E0FB697A6B02F510726A
:1038E00053F82230B3F1404F06DCFB697A6B02F5E6
:1038F0001072794943F82210FB697A6B02F5107255
:1039000053F82230B3F1804F07DBFB697A6B02F585
:1039100010726FF0404143F822107B6B01337B63E0
:10392000FB6903F5905304331A687B6B9A42D3DC2E
:10393000BB6A1B6A5B10002B39D0BB6A1B6A03F0A1
:103940000103002B1FD07B6918331B68002B09D1A2
:10395000BB6A5B6B7A6918325269013233F91230F3
:10396000FB621DE0BB6A5A6B7B6918331B6901332C
:1039700014335B001344B3F906301A4613465B0058
:103980001344FB620CE0FB6903F5905304331A689F
:10399000FB6903F590531B689342B8BF1346FB6263
:1039A000FB6907F10C02F96A184604F09DFEBB6A38
:1039B0001B6A03F00103002B56D0FB6903F59053FB
:1039C0001B68FB62BB6A1B78002B24D1FD693A6837
:1039D00013465B019B1A9B003E333A6AD618BB69BB
:1039E00003F54671BB6A1B6A58107C6A3A68134635
:1039F000DB0013441B01234488331B6807F10C02CE
:103A000003920293019000913346BA6AF96A2846FC
:103A100004F0C4FE28E0FE693A6813465B019B1A75
:103A20009B003E333A6A02EB030EBB6903F5467115
:103A30003B6A03F1F800BB6A1B6A5C107D6A3A6856
:103A40001346DB0013441B012B4488331B6807F12A
:103A50000C02049203930294019000917346BA6A97
:103A6000F96A304605F0B0F8BB6A1B6A002B2DD00E
:103A7000FB681846FFF762FE03465A1EFB6903F512
:103A8000905308331A603B691846FFF757FE034608
:103A90005A1EFB6903F590530C331A60FB6903F55A
:103AA000905304331A68FB6903F590531B689342E3
:103AB000B8BF1346FB62FB6903F59053FA6A1A60BC
:103AC000FB6903F590530433FA6A1A600023184621
:103AD0003C37BD46F0BD00BF010000C080B485B0DA
:103AE00000AF7860396079683B6881FB0323FA6036
:103AF0003B603B6818461437BD4680BC704700BF2A
:103B000080B485B000AF78607B68B3FA83F3FB6064
:103B1000FB6818461437BD4680BC704780B592B02C
:103B200000AFF860B9607A603B600023BB633B681C
:103B300003F003039B018A4A13447B633B6803F051
:103B40000303884A52F823303B633B689B101F2BCA
:103B5000A8BF1F23FB62FB6A03331F2BA8BF1F23D1
:103B60007B647B6C23EAE3737B6400237B617B6B68
:103B700004331A687B6C42FA03F3BB617B6B083336
:103B80001A687B6C42FA03F3FB617B6B0C331A6897
:103B90007B6C42FA03F33B62FB681A1DFA601B68F8
:103BA000BB62BB6A23F000433B643B6C032B08DC25
:103BB0003B6C9B0007F14802134453F8343CFB6311
:103BC000B2E03B6C0F2B14DC3B6C9B007A6B134414
:103BD0001B68FB63FB6A002B05DAFB6A5B42FA6B2E
:103BE00002FA03F303E0FA6BFB6A42FA03F3FB63A6
:103BF0009AE03B6C3F2B0EDC3B6C103B5A4A52F870
:103C00002330FB63396BF86BFFF768FFF863FB6ADF
:103C1000033B7B646CE03B6C5B043B6400237B6494
:103C20003B6CB3F1006F05DA3B6C1B013B647B6CB2
:103C300004337B643B6CB3F1005F05DA3B6C9B00A3
:103C40003B647B6C02337B643B6CB3F1804F05DAE1
:103C50003B6C5B003B647B6C01337B643B6C434A95
:103C6000934201DC424B00E0424B7B627B6A1B6863
:103C7000FB63396CF86BFFF731FF02467B6A043354
:103C80001B681344FB63396CF86BFFF727FF024690
:103C90007B6A08331B681344FB63396CF86BFFF7CE
:103CA0001DFF02467B6A0C331B681344FB63396CAF
:103CB000F86BFFF713FF02467B6A10331B6813444F
:103CC000FB632D4A7B6C52F823301946F86BFFF7E3
:103CD00005FF0346DB00FB63396BF86BFFF7FEFE65
:103CE000F863264A7B6C52F82330FA6AD31A7B6455
:103CF0007B6C002B13DA7B6C5B427B646FF00042C1
:103D00007B6C1A41FB6B9A4203DA6FF00043FB6352
:103D10000AE0FA6B7B6C02FA03F3FB6304E0FA6BD4
:103D20007B6C42FA03F3FB63BA6BFB6B1343BB631D
:103D3000BB681A1DBA60BA6A002A02DAFA6B5242EC
:103D400000E0FA6B1A607B68013B7B607B68002BAC
:103D50007FF422AFBB6B18464837BD4680BD00BF1D
:103D60008829010878290108882A01089979825A46
:103D7000482B01085C2B0108902B0108702B0108CF
:103D800080B596B000AFF860B9607A603B603B6E7A
:103D90005B69022B17D100233B633B6E9B69002BB1
:103DA0000AD03B681B78002B01D1082300E00623D2
:103DB0007B6403233B6403E000237B6400233B64B8
:103DC0000D23FB6307E000233B6316237B640D2375
:103DD0003B640D23FB6300233B613B697B617B6993
:103DE000BB610023BB6300237B653B6E1B6C01330F
:103DF0005B00FB623B6E9B687B633B681B6A5B10EE
:103E0000002B02D07B6B023B7B637B6B02337B63BB
:103E10000023BB644EE00023BB623B685B6BBA6C63
:103E2000013233F9123019463B685B6BBA6C33F9D7
:103E30001230CB1A7B627B6BC3F1D202796EBB6C02
:103E40000B4493F9003018463B6EDB6B002B05D01A
:103E5000A249BB6C0B4493F9003000E000230344FB
:103E6000F96A01FB03F313443B627B6D9B00FA6824
:103E7000D0187B6D9B00FA68D1183B6A7A6AFFF70D
:103E80004DFE0246BB6A1343BB627A6D7B6A1344E4
:103E90007B65BB6A002B01D0BB6C3B61BA6BBB6A14
:103EA0001343BB637B681A687B6D9A4207DDBB6C6A
:103EB0000133BB64BA6C7B6C9A42ACDB00E000BFA0
:103EC000BB6E00221A603A69BB6E5A61BB6E00225B
:103ED000DA60BB6EDA68BB6E9A60BB6E9A68BB6EC6
:103EE0005A60BB6E00221A613B6C0B2B05DDB86B70
:103EF000FFF706FE0346013BEBE03B6C3B613B6991
:103F00007B617B69BB613B6CBB64AEE03B685A6B19
:103F1000BB6C013314335B001344B3F9063019460C
:103F20003B685A6BBB6C14335B001344B3F9063027
:103F3000CB1A7B620023FB6447E00023BB627B6BF0
:103F4000C3F1D2023B6EF96C0A3153F82130DB0029
:103F5000D118786EBA6C13465B001344C218FB6C20
:103F60001344173393F900301A46FB6A03FB02F33C
:103F70000B443B627B6AFA6C02FB03F31A467B6DCF
:103F800013449B00FA68D0187B6AFA6C02FB03F3B7
:103F90009B00BA68D1183B6A7A6AFFF7BFFD0246F8
:103FA000BB6A1343BB62BB6A002B07D0FB6C9B0050
:103FB00007F158021344BA6C43F8482CBA6BBB6A39
:103FC0001343BB63FB6C0133FB64FB6C022BB4DD5E
:103FD0007B6D9B00FA681344FB617A6A13465B00B1
:103FE00013447A6D13447B6500233B6531E03A6DE1
:103FF00013465B0013449B001A46FB6913443A6D59
:104000009200B9680A4412681A603A6D13465B0060
:1040100013449B001A46FB691344796A3A6D0A44BB
:104020009200B9680A4412685A603A6D13465B0000
:1040300013449B001A46FB6913447A6A51003A6D97
:104040000A449200B9680A4412689A603B6D0133D1
:104050003B653A6D7B6A9A42C9DB7B681A687B6D67
:104060009A4208DDBB6C0133BB64BA6CFB6B9A42AD
:10407000FFF64CAF00E000BF7B687A6D1A603B6EC4
:104080009B69002B01D0022200E00122BB6E1A6066
:104090003A69BB6E5A607A69BB6E9A60BA69BB6E48
:1040A000DA603A69BB6E1A617A69BB6E1B699A4223
:1040B000B8BF1A46BB6E1A61BA69BB6E1B699A42D9
:1040C000B8BF1A46BB6E1A61B86BFFF719FD0346FD
:1040D000013B18465837BD4680BD00BF6029010826
:1040E00080B495B000AFF860B9607A603B60BB689F
:1040F000002B01DC0023D8E23B68002B02DA4FF0F2
:10410000FF33D2E23B683B639B4A7B6852F8233023
:104110005B009A4A1344FB62994A7B6852F8333039
:10412000BB62974A7B68DB0013441B7987F8273012
:1041300000237B63FB6D5B4203F007033B643B6C36
:10414000002B0AD0BB6D5A1CBA651B781A463B6C13
:10415000C3F1200302FA03F37B633A683B6CD31A82
:104160003B6097F82730002B18D10023FB640FE049
:10417000FB6C9B00FA68134400221A60FB6C01334D
:104180009B00FA68134400221A60FB6C0233FB6444
:10419000FA6CBB689A42EBDB002386E297F8273083
:1041A000012B40F0DA80FB6A1B8803F00F033B62AF
:1041B000FB6A0233FB620023FB63C0E03B680F2B0A
:1041C00020DDBB6D5A1CBA651B781A463B6CC3F1E7
:1041D000180302FA03F37A6B13437B63BB6D5A1C1B
:1041E000BA651B781A463B6CC3F1100302FA03F35D
:1041F0007A6B13437B633B6C10333B643B68103B2F
:104200003B6096E03A6C3B681344002B02DC4FF0B5
:10421000FF334AE23B68002B0CDDBB6D5A1CBA65CC
:104220001B781A463B6CC3F1180302FA03F37A6B4E
:1042300013437B633B68082B0CDDBB6D5A1CBA65CE
:104240001B781A463B6CC3F1100302FA03F37A6B36
:1042500013437B633A6C3B6813443B6400233B602D
:104260003B6C013B4FF0004242FA03F31A467B6B72
:1042700013407B630B23FB633A6CFB6B13443B647F
:1042800057E03B6AC3F120037A6B22FA03F35B0029
:10429000FA6A13441B88FB83FB8B1B0B9BB203F056
:1042A0000F03BB613A6CBB69D31A3B647A6BBB6981
:1042B00002FA03F37B63FB8B1B099BB203F00F0332
:1042C000BB64BB6C002B0BD07B6B03F00042BB6C60
:1042D0001343BB647B6B5B007B633B6C013B3B64C8
:1042E000FB8B1B0A9BB203F00F037B647B6C002BE0
:1042F0000BD07B6B03F000427B6C13437B647B6BC6
:104300005B007B633B6C013B3B643A6CFB6B9A420A
:1043100002DA4FF0FF33C8E1FB681A1DFA60BA6C8D
:104320001A60FB681A1DFA607A6C1A60BB68023B5F
:10433000BB60BB68002B02DD3B6C0A2BA1DCBB68B9
:10434000002B3FF73BAF3A6CFB6BD31A3A68134430
:104350003B603A6B3B68D31AA7E197F82730032BF1
:1043600004D097F82730022B40F09D81FB6ABB6395
:104370000023FB6389E100BFD44C0108B02B010886
:10438000544D01083B680F2B20DDBB6D5A1CBA65EC
:104390001B781A463B6CC3F1180302FA03F37A6BDD
:1043A00013437B63BB6D5A1CBA651B781A463B6C82
:1043B000C3F1100302FA03F37A6B13437B633B6C84
:1043C00010333B643B68103B3B6057E13A6C3B6801
:1043D0001344002B02DC4FF0FF3366E13B68002BF7
:1043E0000CDDBB6D5A1CBA651B781A463B6CC3F1D9
:1043F000180302FA03F37A6B13437B633B68082BC1
:104400000CDDBB6D5A1CBA651B781A463B6CC3F1B8
:10441000100302FA03F37A6B13437B633A6C3B6835
:1044200013443B6400233B603B6C013B4FF0004274
:1044300042FA03F31A467B6B13407B630B23FB6347
:104440003A6CFB6B13443B6418E1BB6B1B8803F0B5
:104450000F033B623B6AC3F120037A6B22FA03F33A
:1044600001335B00BA6B13441B88FB83FB8B1B0B74
:104470009BB203F00F03BB61BB69002B0ED13A6CFA
:104480003B6AD31A3B647A6B3B6A02FA03F37B63A1
:10449000FB8B5B00BA6B1344BB63EFE03A6CBB6908
:1044A000D31A3B647A6BBB6902FA03F37B63FB8B21
:1044B0001B099BB203F00F03BB64FB8B1B0A9BB26F
:1044C00003F00F037B64BB6C0F2B53D197F827309D
:1044D000032B4FD1BB6A01337A6C002A14BF01222F
:1044E0000022D2B213447B613A6C3B681A447B6968
:1044F0009A4215DA4FF0FF33D7E0BB6D5A1CBA650C
:104500001B781A463B6CC3F1180302FA03F37A6B6B
:1045100013437B633B6C08333B643B68083B3B6065
:104520003A6C7B699A42E8DB3B68002B0FDA3A6C05
:104530003B6813443B6400233B603B6C013B4FF002
:10454000004242FA03F31A467B6B13407B63BB6A5B
:10455000C3F120037A6B22FA03F31A46BB6C1344AF
:10456000BB643A6CBB6AD31A3B647A6BBB6A02FACF
:1045700003F37B63BB6C002B0BD07B6B03F000421F
:10458000BB6C1343BB647B6B5B007B633B6C013B8D
:104590003B647B6C0F2B4CD197F82730032B48D111
:1045A000BB6A01337B613A6C3B681A447B699A426F
:1045B00015DA4FF0FF3378E0BB6D5A1CBA651B78F3
:1045C0001A463B6CC3F1180302FA03F37A6B1343E8
:1045D0007B633B6C08333B643B68083B3B603A6C55
:1045E0007B699A42E8DB3B68002B0FDA3A6C3B6848
:1045F00013443B6400233B603B6C013B4FF00042A3
:1046000042FA03F31A467B6B13407B63BB6AC3F128
:1046100020037A6B22FA03F31A467B6C13447B6403
:104620003A6CBB6AD31A3B647A6BBB6A02FA03F337
:104630007B637B6C002B0BD07B6B03F000427B6CAD
:1046400013437B647B6B5B007B633B6C013B3B6494
:104650003A6CFB6B9A4202DA4FF0FF3325E0FB68BD
:104660001A1DFA60BA6C1A60FB681A1DFA607A6C3F
:104670001A60BB68023BBB60FB6ABB63BB68002B74
:1046800003DD3B6C0A2B3FF7E0AEBB68002B3FF726
:1046900079AE3A6CFB6BD31A3A6813443B603A6BC1
:1046A0003B68D31A01E04FF0FF3318465437BD463C
:1046B00080BC704780B491B000AFF860B9607A6098
:1046C0003B603B68002B01DC002324E1944A7B68BB
:1046D00052F823301A46934B1344FB61924A7B688D
:1046E00052F82330BB6100233B62FB6C5B4203F05A
:1046F0000703BB62BB6A002B0AD0BB6C5A1CBA64AE
:104700001B781A46BB6AC3F1200302FA03F33B622B
:104710003A68BB6AD31A3B6000237B627B6AFB6307
:10472000F2E03B680F2B20DDBB6C5A1CBA641B788F
:104730001A46BB6AC3F1180302FA03F33A6A134339
:104740003B62BB6C5A1CBA641B781A46BB6AC3F145
:10475000100302FA03F33A6A13433B62BB6A103355
:10476000BB623B68103B3B60C5E0BA6A3B681344E0
:10477000002B01DCFB6BCEE03B68002B0CDDBB6C3F
:104780005A1CBA641B781A46BB6AC3F1180302FAB2
:1047900003F33A6A13433B623B68082B0CDDBB6CA6
:1047A0005A1CBA641B781A46BB6AC3F1100302FA9A
:1047B00003F33A6A13433B62BA6A3B681344BB6231
:1047C00000233B60BB6A013B4FF0004242FA03F317
:1047D0001A463B6A13403B620A237B62BA6A7B6AD1
:1047E0001344BB6287E0BB69C3F120033A6A22FA33
:1047F00003F3FA6913441B78FB75FB7D1B09DBB2DD
:1048000003F00F033B61BA6A3B69D31ABB623A6A91
:104810003B6902FA03F33B62FB7DDB08DBB203F08A
:104820000103BB63BB6B002B0BD03B6A03F0004260
:10483000BB6B1343BB633B6A5B003B62BB6A013BE0
:10484000BB62FB7D9B08DBB203F001037B637B6BE8
:10485000002B0BD03B6A03F000427B6B13437B635E
:104860003B6A5B003B62BB6A013BBB62FB7D5B0852
:10487000DBB203F001033B633B6B002B0BD03B6AC5
:1048800003F000423B6B13433B633B6A5B003B62BC
:10489000BB6A013BBB62FB7D03F00103FB62FB6A69
:1048A000002B0BD03B6A03F00042FB6A1343FB6210
:1048B0003B6A5B003B62BB6A013BBB62BA6A7B6AD4
:1048C0009A4201DAFB6B26E0FB681A1DFA60BA6BAC
:1048D0001A60FB681A1DFA607A6B1A60FB681A1D71
:1048E000FA603A6B1A60FB681A1DFA60FA6A1A607D
:1048F000FB6B0433FB63BB68DA1EFB6B9A4203DD80
:10490000BB6A092B3FF76FAFBB68DA1EFB6B9A429D
:104910003FF707AFFB6B18464437BD4680BC704776
:10492000A44E0108544E0108AC4E010880B596B063
:1049300002AFF860B9607A603B60BB68FB63FB68FC
:10494000002B0FD0FB681B68002B0BD0FB685B684B
:10495000002B07D0FB689B68002B03D0FB68DB684B
:10496000002B02D14FF0FF3345E1FB681B68BB63AE
:10497000FB685B687B63FB6D1A46D2001A44D30068
:104980001A46B96D0B46DB000B441B011344283358
:104990007A6B13443B63FB689B68FB62FB68DB68D4
:1049A000BB623B68002B02DA4FF0FF3323E13B6B25
:1049B0001B69002B41D03B6B5B69022B3DD13B6BEC
:1049C0009B69002B14D1BB6B5A6B3B6B5B6B013348
:1049D0008B4981FB0301DB17CB1A14335B001344B3
:1049E000B3F906301A4613465B001344FB6420E01B
:1049F000BB6B1B78002B08D1BB6B5B6B3A6B526BAC
:104A0000013233F91230FB6413E0BB6B5B6BB3F91B
:104A100036301A46BB6B5B6BB3F93430D31A7B620A
:104A2000BB6B5B6BB3F90C301A467B6A5B001344BB
:104A3000FB644FF41073BB6413E0BB6B5B6B3A6BAE
:104A4000526B013233F91230FB64BB6B5B6B3A6B18
:104A5000526B511C3A6B926B0A44013233F912309B
:104A6000BB643B6B5B685B00B3F5107FA8BF4FF482
:104A70001073FB61FA69BB6C9342A8BF1346BB611C
:104A8000FA69FB6C9342A8BF13467B6100233B612C
:104A9000F969BB6AFA6D02F5906243F822103B682F
:104AA0003B6400237B6450E0FA6D1346DB00134443
:104AB0001B02BA6A1A447B6C9B0007F150010B443D
:104AC00053F8403C9B00D0187B6C01339B0007F1EE
:104AD0005002134453F8402C7B6C9B0007F15001AB
:104AE0000B4453F8403CD11A3A6B7B6C06339B0065
:104AF00013445A687B681B680193BB6800933B6C46
:104B0000FFF7EEFA38623B6A002B03DB3A6A3B6C34
:104B10009A4202DD4FF0FF336DE07B681A683B6A12
:104B20001344DB101A46BB681344BB607B681A68E9
:104B30003B6A134403F007027B681A603A6C3B6AD5
:104B4000D31A3B647B6C01337B647B6C022BABDD43
:104B5000FA6D1346DB0013441B02BA6A1A44FB6960
:104B60009B00D018FB69C3F510713B6B5A6C7B68D6
:104B70001B680193BB6800933B6CFFF79BFD0146EC
:104B8000BB6AFA6D02F5906253F822301944BB6A91
:104B9000FA6D02F5906243F82210BB6AFA6D02F5D5
:104BA000906253F822307B640DE0B96AFA6D1346C7
:104BB000DB0013449B017A6C1344002241F823204C
:104BC0007B6C01337B647B6CB3F5107FEDDB7B6822
:104BD0001A683B6C1344DB101A46BB681344BB6075
:104BE0007B681A683B6C134403F007027B681A6009
:104BF000BA68FB6BD31A18465037BD4680BD00BF5C
:104C00005655555580B485B000AF786039607968E5
:104C10003B6881FB0323FA603B603B68184614370E
:104C2000BD4680BC704700BF80B485B000AF7860DF
:104C30007B68DB17FB607A68FB6853407B607A68AF
:104C4000FB68D31A7B607B6818461437BD4680BC6E
:104C5000704700BF80B485B000AF78607B68B3FA5E
:104C600083F3FB60FB6818461437BD4680BC704771
:104C7000B0B588B000AF786039603B68FB619FE1F8
:104C8000A34BBB617B6848337B607B6853F8043C73
:104C90007B61BB691B683B61BB690433BB617B689B
:104CA0001B68FB60BB691B68BB60BB690433BB61ED
:104CB0007B681C1F79693869FFF7A4FF0546F9680E
:104CC000B868FFF79FFF0346EB1A5B002360F968A3
:104CD0003869FFF797FF04467969B868FFF792FFD4
:104CE000034623445A007B681A607B6853F8083CEB
:104CF0007B61BB691B683B61BB690433BB617B683B
:104D00005B68FB60BB691B68BB60BB690433BB614C
:104D10007B68A3F1080479693869FFF773FF0546DA
:104D2000F968B868FFF76EFF0346EB1A5B00236073
:104D30007B681C1DF9683869FFF764FF05467969CF
:104D4000B868FFF75FFF03462B445B0023607B6876
:104D500053F80C3C7B61BB691B683B61BB69043346
:104D6000BB617B689B68FB60BB691B68BB60BB6900
:104D70000433BB617B68A3F10C0479693869FFF7E0
:104D800041FF0546F968B868FFF73CFF0346EB1A98
:104D90005B0023607B6803F10804F9683869FFF75A
:104DA00031FF05467969B868FFF72CFF03462B44AD
:104DB0005B0023607B6853F8103C7B61BB691B6818
:104DC0003B61BB690433BB617B68DB68FB60BB692B
:104DD0001B68BB60BB690433BB617B68A3F1100433
:104DE00079693869FFF70EFF0546F968B868FFF77B
:104DF00009FF0346EB1A5B0023607B6803F10C0498
:104E0000F9683869FFF7FEFE05467969B868FFF76B
:104E1000F9FE03462B445B0023607B6853F8143C87
:104E20007B61BB691B683B61BB690433BB617B6809
:104E30001B69FB60BB691B68BB60BB690433BB615A
:104E40007B68A3F1140479693869FFF7DBFE054636
:104E5000F968B868FFF7D6FE0346EB1A5B002360DB
:104E60007B6803F11004F9683869FFF7CBFE05464B
:104E70007969B868FFF7C6FE03462B445B002360E0
:104E80007B6853F8183C7B61BB691B683B61BB695D
:104E90000433BB617B685B69FB60BB691B68BB60FB
:104EA000BB690433BB617B68A3F118047969386975
:104EB000FFF7A8FE0546F968B868FFF7A3FE0346AA
:104EC000EB1A5B0023607B6803F11404F96838690E
:104ED000FFF798FE05467969B868FFF793FE034629
:104EE0002B445B0023607B6853F81C3C7B61BB69EF
:104EF0001B683B61BB690433BB617B689B69FB60DA
:104F0000BB691B68BB60BB690433BB6102E000BFC7
:104F1000105301087B68A3F11C0479693869FFF715
:104F200071FE0546F968B868FFF76CFE0346EB1A98
:104F30005B0023607B6803F11804F9683869FFF7A8
:104F400061FE05467969B868FFF75CFE03462B44AD
:104F50005B0023607B6853F8203C7B61BB691B6866
:104F60003B61BB690433BB617B68DB69FB60BB6988
:104F70001B68BB60BB690433BB617B68A3F1200481
:104F800079693869FFF73EFE0546F968B868FFF7AA
:104F900039FE0346EB1A5B0023607B6803F11C04B7
:104FA000F9683869FFF72EFE05467969B868FFF79A
:104FB00029FE03462B445B002360FB69013BFB6138
:104FC000FB69002B3FF75CAE00BF2037BD46B0BD8C
:104FD000F0B58FB000AFF860B9607A60FB683B63F2
:104FE0007B68022B40F018817A681346DB0013447B
:104FF0001B01A94A13447B627B6A18331A68FB6859
:1050000008331B6819461046FFF7FCFD04467B6A0F
:105010001A68FB6818331B6819461046FFF7F2FD43
:105020000346E218BB681A60BB681C1D7B6A1C3310
:105030001A68FB6804331B6819461046FFF7E2FD47
:1050400005467B6A04331A68FB681C331B681946E3
:105050001046FFF7D7FD03462B442360BB6803F1DE
:1050600008047B6A20331A68FB681B6819461046DF
:10507000FFF7C8FD05467B6A08331A68FB682033D2
:105080001B6819461046FFF7BDFD03462B442360FD
:10509000BB6803F10C047B6A24331A68FB681B6845
:1050A00019461046FFF7AEFD05467B6A0C331A68B9
:1050B000FB6820331B6819461046FFF7A3FD034623
:1050C0002B442360BB6803F110047B6A28331A6801
:1050D000FB6804331B6819461046FFF793FD05462D
:1050E0007B6A10331A68FB681C331B68194610462C
:1050F000FFF788FD03462B442360BB6803F11404CB
:105100007B6A2C331A68FB6808331B681946104603
:10511000FFF778FD05467B6A14331A68FB6818337D
:105120001B6819461046FFF76DFD03462B442360AC
:10513000BB6803F118047B6A18331A68FB681433E0
:105140001B6819461046FFF75DFD03462360BB68E8
:1051500003F11C047B6A1C331A68FB6810331B685C
:1051600019461046FFF74EFD03462360BB6803F166
:1051700020047B6A20331A68FB680C331B681946CD
:105180001046FFF73FFD03462360BB6803F124048C
:105190007B6A24331A68FB680C331B681946104677
:1051A000FFF730FD03462360BB6803F128047B6AE8
:1051B00028331A68FB6810331B6819461046FFF73E
:1051C00021FD03462360BB6803F12C047B6A2C336A
:1051D0001A68FB6814331B6819461046FFF712FD66
:1051E00003462360BB6803F13005BB683433BA68FB
:1051F0003832B9683C31B8684030BC684434002665
:1052000026602468046000680860096811601268FC
:105210001A601B682B603AE07A681346DB0013447F
:105220001B011D4A134448337B627B6A44333B6253
:10523000BB68FB62BB684433BB6209237B6323E02A
:105240003B6B1A1D3A631B68FB617B6A1A1D7A620D
:105250001B68BB613B6A1A1F3A621B687B61FC6A70
:10526000231DFB62F969B869FFF7CCFC0346236094
:10527000BC6A231FBB62F9697869FFF7C3FC034668
:1052800023607B6B013B7B637B6B002BD8DC00BF17
:105290003C37BD46F0BD00BF884F010880B596B0D1
:1052A00000AFF860B9607A603B603B68002B40F06B
:1052B00096807B6803F00103002B00F08E80FB6872
:1052C0008033FB60FB681B68BB64FB6803F580737D
:1052D000FB60FB681B687B64FB6803F58073FB6005
:1052E000FB681B683B64FB6803F58073FB60FB682D
:1052F0001B68FB63FB6803F58073FB60FB681B683E
:10530000BB63FB6803F58073FB60FB681B687B6312
:10531000FB6803F58073FB60FB681B683B63FB68FD
:1053200003F58073FB60FB681B68FB62FB6803F599
:105330008073FB60FB681B68BB62FB6803F58073CE
:10534000FB60FB68A3F51063FB60BB6C5A42FB6813
:105350001A60FB6803F58073FB607B6C5A42FB6844
:105360001A60FB6803F58073FB603B6C5A42FB6874
:105370001A60FB6803F58073FB60FB6B5A42FB68A5
:105380001A60FB6803F58073FB60BB6B5A42FB68D5
:105390001A60FB6803F58073FB607B6B5A42FB6805
:1053A0001A60FB6803F58073FB603B6B5A42FB6835
:1053B0001A60FB6803F58073FB60FB6A5A42FB6866
:1053C0001A60FB6803F58073FB60BB6A5A42FB6896
:1053D0001A60FB6803F58073FB600023FFE0002385
:1053E000FB647B6803F00103002B7CD000237B650A
:1053F00075E0FB681B683B653B6DDB177B623B68B8
:10540000C3F11F033A6D1A417B6A9A4209D03B6887
:10541000C3F11F03012202FA03F35A1E7B6A5340B1
:105420003B653A6D3B689A40FB681A60FB681B68F5
:105430001846FFF7F9FB0246FB6C1343FB64FB685D
:105440008033FB60FB681B685B423B653B6DDB1791
:105450003B623B68C3F11F033A6D1A413B6A9A42B3
:1054600009D03B68C3F11F03012202FA03F35A1E5D
:105470003B6A53403B653A6D3B689A40FB681A6053
:10548000FB681B681846FFF7CFFB0246FB6C134313
:10549000FB64FB688033FB60BB681B683B653B6D4E
:1054A000DB17FB613B68C3F11F033A6D1A41FB69CF
:1054B0009A4209D03B68C3F11F03012202FA03F3A9
:1054C0005A1EFB6953403B65BB681A1DBA60396DB3
:1054D0003A6801FA02F21A607B6D02337B657B6DDC
:1054E000112B86DD7AE000237B6574E0FB681B6886
:1054F0003B653B6DDB17BB613B68C3F11F033A6D36
:105500001A41BB699A4209D03B68C3F11F030122CB
:1055100002FA03F35A1EBB6953403B653A6D3B6880
:105520009A40FB681A60FB681B681846FFF77CFB13
:105530000246FB6C1343FB64FB688033FB60FB6833
:105540001B683B653B6DDB177B613B68C3F11F0349
:105550003A6D1A417B699A4209D03B68C3F11F0337
:10556000012202FA03F35A1E7B6953403B653A6DF0
:105570003B689A40FB681A60FB681B681846FFF797
:1055800053FB0246FB6C1343FB64FB688033FB60F8
:10559000BB681B683B653B6DDB173B613B68C3F138
:1055A0001F033A6D1A413B699A4209D03B68C3F127
:1055B0001F03012202FA03F35A1E3B6953403B6565
:1055C000BB681A1DBA60396D3A6801FA02F21A60B6
:1055D0007B6D02337B657B6D112B87DDFB6C184681
:1055E0005837BD4680BD00BF80B5B0B000AF786011
:1055F0007B681B68C7F8BC307B685B68C7F8B8304D
:105600007B689B68C7F8B4307B68DB68C7F8B0304C
:105610007B681B69C7F8AC307B685B69C7F8A8304A
:105620007B689B69C7F8A4307B68DB69C7F8A0304A
:105630007B681B6AC7F89C30D7F8BC20D7F8A43029
:10564000D31AC7F89830D7F8B820D7F8A830D31AAB
:10565000C7F89430D7F8B820D7F8A8301344C7F863
:105660009030D7F8B420D7F8AC30D31AC7F88C30C4
:10567000D7F8B420D7F8AC301344C7F88830D7F83F
:10568000B420D7F89C301344C7F88430D7F8B8203A
:10569000D7F8A0301344C7F88030D7F88420D7F863
:1056A0008830D31AFB67D7F89020D7F88030D31A08
:1056B000BB67D7F89420D7F8A030D31A7B67D7F808
:1056C0008C20D7F89C30D31A3B67794BD7F8B010B1
:1056D0001846FFF797FAF866754B796F1846FFF78B
:1056E00091FAB866734BD7F888101846FFF78AFA14
:1056F0007866714BD7F884101846FFF783FA38663E
:105700006C4BF96F1846FFF77DFAF8656A4BD7F8CE
:1057100088101846FFF776FAB865684BB96F1846D7
:10572000FFF770FA7865664BD7F880101846FFF7D8
:1057300069FA3865614BD7F890101846FFF762FA9E
:10574000F8645F4BB96F1846FFF75CFAB8647B6882
:105750001A687B6818331B685B1013447B64FB6E0C
:105760005A007B6C13443B64FB6E5B007A6CD31A6B
:10577000FB633B6F5A10D7F898301344BB637B6EC2
:105780005A003B6E5B0013447B63FB6D5A00BB6D9C
:105790005B00D31A3B637A6B3B6B1344FB627B6DFC
:1057A0005A003B6D5B001344BB62FB6C5A00BB6C40
:1057B0005B00D31A7B627A6ABB6AD31A3B623A6C8B
:1057C0007B6B1344FB61FA6B7B6B1344BB61FA6B1D
:1057D0003B6B13447B613A6C3B6B13443B61FA6B4C
:1057E000FB6AD31AFB603A6CFB6AD31ABB60FA6996
:1057F000BB6A1344C7F8BC307B68D7F8BC201A607A
:10580000BB6E5A00BB6B1344C7F8B8307B680433D7
:10581000D7F8B8201A607A697B6A1344C7F8B430A5
:105820007B680833D7F8B4201A60FA683B6AD31A49
:10583000C7F8B0307B680C33D7F8B0201A60D7F8BF
:1058400098203B6FD31AC7F8AC307B681033D7F879
:10585000AC201A60BA683B6A1344C7F8A8307B686A
:105860001433D7F8A8201A603A697B6AD31AC7F8AC
:10587000A4307B681833D7F8A4201A60BB6E5B0095
:10588000BA6BD31AC7F8A0307B681C33D7F8A020B6
:105890001A60BA69BB6AD31AC7F89C307B68203398
:1058A000D7F89C201A6000BFC037BD4680BD00BF3E
:1058B000A1EBD96E8BBE0D627E1A3A1649DD4652B7
:1058C000322E0E7E90B5B9B000AFF860B9607A6044
:1058D0003B600023C7F8D030D7F8D030C7F8D430B9
:1058E000FB684433FB60D7F8F830062B57DCD7F859
:1058F000F830C3F10703C7F8D8300823C7F8DC3005
:1059000048E0FB681A1FFA601A68D7F8D8301A41C5
:10591000D7F8D430D31AC7F8D430D7F8D420D7F872
:10592000D030D31AC7F8D030FB681A1FFA601A6853
:10593000D7F8D8301A41D7F8D430D31AC7F8D430B2
:10594000D7F8DC3009339B0007F1E0021344D7F8A5
:10595000D02043F8882CD7F8DC309B0007F1E00218
:105960001344D7F8D42043F8882CD7F8DC309B00B8
:10597000BA681344D7F8DC209200B9680A44116869
:10598000D7F8D82041FA02F21A60D7F8DC30013B90
:10599000C7F8DC30D7F8DC30002BB2DA3DE000236A
:1059A000C7F8D8300823C7F8DC3032E0FB681A1F8C
:1059B000FA601A68D7F8D430D31AC7F8D430D7F8B9
:1059C000D420D7F8D030D31AC7F8D030FB681A1FCC
:1059D000FA601A68D7F8D430D31AC7F8D430D7F899
:1059E000DC3009339B0007F1E0021344D7F8D020E4
:1059F00043F8882CD7F8DC309B0007F1E002134411
:105A0000D7F8D42043F8882CD7F8DC30013BC7F80E
:105A1000DC30D7F8DC30002BC8DAFB6F5B10FB679B
:105A2000BB6D5B10BB6507F158031846FFF7DCFD43
:105A300007F1580324331846FFF7D6FD07F1580342
:105A40002033C7F8C830B84BC7F8C4300023C7F8B4
:105A5000CC30D7F8F030002B40F0A0803B68002B12
:105A600040F09C80B14BC7F8C0300023C7F8DC3051
:105A70008EE0D7F8C4301A1FC7F8C4201B68C7F8D7
:105A8000BC30D7F8C8305B6AC7F8B830D7F8C83030
:105A90001A1FC7F8C8201B68C7F8B430D7F8B81069
:105AA000D7F8BC00FFF7AEF8C7F8B800D7F8B430A5
:105AB0009B10C7F8B430BB681B685B42C7F8B030B6
:105AC000D7F8B820D7F8B430D31AC7F8AC30BB68D1
